{"contracts/test/NoDelegateCallTest.sol":{"NoDelegateCallTest":{"abi":[{"inputs":[],"name":"callsIntoNoDelegateCallFunction","outputs":[],"stateMutability":"view","type":"function"},{"inputs":[],"name":"canBeDelegateCalled","outputs":[{"internalType":"uint256","name":"","type":"uint256"}],"stateMutability":"view","type":"function"},{"inputs":[],"name":"cannotBeDelegateCalled","outputs":[{"internalType":"uint256","name":"","type":"uint256"}],"stateMutability":"view","type":"function"},{"inputs":[],"name":"getGasCostOfCanBeDelegateCalled","outputs":[{"internalType":"uint256","name":"","type":"uint256"}],"stateMutability":"view","type":"function"},{"inputs":[],"name":"getGasCostOfCannotBeDelegateCalled","outputs":[{"internalType":"uint256","name":"","type":"uint256"}],"stateMutability":"view","type":"function"}],"evm":{"bytecode":{"linkReferences":{},"object":"60a060405234801561001057600080fd5b5030606081901b6080526101486100316000398061010952506101486000f3fe608060405234801561001057600080fd5b50600436106100675760003560e01c8063423ecb0511610050578063423ecb051461008e5780636427016414610096578063f45f416e146100a057610067565b80633045a6e01461006c5780633c7c8dd014610086575b600080fd5b6100746100a8565b60408051918252519081900360200190f35b6100746100bf565b6100746100c9565b61009e6100dd565b005b6100746100e7565b6000805a90506100b66100e7565b505a9003905090565b6000805a90506100b65b60006100d36100f1565b6005425b04905090565b6100e5610133565b565b60006005426100d7565b3073ffffffffffffffffffffffffffffffffffffffff7f000000000000000000000000000000000000000000000000000000000000000016146100e557600080fd5b6100e56100f156fea164736f6c6343000706000a","opcodes":"PUSH1 0xA0 PUSH1 0x40 MSTORE CALLVALUE DUP1 ISZERO PUSH2 0x10 JUMPI PUSH1 0x0 DUP1 REVERT JUMPDEST POP ADDRESS PUSH1 0x60 DUP2 SWAP1 SHL PUSH1 0x80 MSTORE PUSH2 0x148 PUSH2 0x31 PUSH1 0x0 CODECOPY DUP1 PUSH2 0x109 MSTORE POP PUSH2 0x148 PUSH1 0x0 RETURN INVALID PUSH1 0x80 PUSH1 0x40 MSTORE CALLVALUE DUP1 ISZERO PUSH2 0x10 JUMPI PUSH1 0x0 DUP1 REVERT JUMPDEST POP PUSH1 0x4 CALLDATASIZE LT PUSH2 0x67 JUMPI PUSH1 0x0 CALLDATALOAD PUSH1 0xE0 SHR DUP1 PUSH4 0x423ECB05 GT PUSH2 0x50 JUMPI DUP1 PUSH4 0x423ECB05 EQ PUSH2 0x8E JUMPI DUP1 PUSH4 0x64270164 EQ PUSH2 0x96 JUMPI DUP1 PUSH4 0xF45F416E EQ PUSH2 0xA0 JUMPI PUSH2 0x67 JUMP JUMPDEST DUP1 PUSH4 0x3045A6E0 EQ PUSH2 0x6C JUMPI DUP1 PUSH4 0x3C7C8DD0 EQ PUSH2 0x86 JUMPI JUMPDEST PUSH1 0x0 DUP1 REVERT JUMPDEST PUSH2 0x74 PUSH2 0xA8 JUMP JUMPDEST PUSH1 0x40 DUP1 MLOAD SWAP2 DUP3 MSTORE MLOAD SWAP1 DUP2 SWAP1 SUB PUSH1 0x20 ADD SWAP1 RETURN JUMPDEST PUSH2 0x74 PUSH2 0xBF JUMP JUMPDEST PUSH2 0x74 PUSH2 0xC9 JUMP JUMPDEST PUSH2 0x9E PUSH2 0xDD JUMP JUMPDEST STOP JUMPDEST PUSH2 0x74 PUSH2 0xE7 JUMP JUMPDEST PUSH1 0x0 DUP1 GAS SWAP1 POP PUSH2 0xB6 PUSH2 0xE7 JUMP JUMPDEST POP GAS SWAP1 SUB SWAP1 POP SWAP1 JUMP JUMPDEST PUSH1 0x0 DUP1 GAS SWAP1 POP PUSH2 0xB6 JUMPDEST PUSH1 0x0 PUSH2 0xD3 PUSH2 0xF1 JUMP JUMPDEST PUSH1 0x5 TIMESTAMP JUMPDEST DIV SWAP1 POP SWAP1 JUMP JUMPDEST PUSH2 0xE5 PUSH2 0x133 JUMP JUMPDEST JUMP JUMPDEST PUSH1 0x0 PUSH1 0x5 TIMESTAMP PUSH2 0xD7 JUMP JUMPDEST ADDRESS PUSH20 0xFFFFFFFFFFFFFFFFFFFFFFFFFFFFFFFFFFFFFFFF PUSH32 0x0 AND EQ PUSH2 0xE5 JUMPI PUSH1 0x0 DUP1 REVERT JUMPDEST PUSH2 0xE5 PUSH2 0xF1 JUMP INVALID LOG1 PUSH5 0x736F6C6343 STOP SMOD MOD STOP EXP "},"methodIdentifiers":{"callsIntoNoDelegateCallFunction()":"64270164","canBeDelegateCalled()":"f45f416e","cannotBeDelegateCalled()":"423ecb05","getGasCostOfCanBeDelegateCalled()":"3045a6e0","getGasCostOfCannotBeDelegateCalled()":"3c7c8dd0"}},"storageLayout":{"storage":[],"types":null}}}}