{
  "_format": "hh-sol-artifact-1",
  "contractName": "MockTimePool",
  "sourceName": "contracts/test/MockTimePool.sol",
  "abi": [
    {
      "anonymous": false,
      "inputs": [
        {
          "indexed": true,
          "internalType": "address",
          "name": "owner",
          "type": "address"
        },
        {
          "indexed": true,
          "internalType": "int24",
          "name": "tickLower",
          "type": "int24"
        },
        {
          "indexed": true,
          "internalType": "int24",
          "name": "tickUpper",
          "type": "int24"
        },
        {
          "indexed": false,
          "internalType": "uint128",
          "name": "amount",
          "type": "uint128"
        },
        {
          "indexed": false,
          "internalType": "uint256",
          "name": "amount0",
          "type": "uint256"
        },
        {
          "indexed": false,
          "internalType": "uint256",
          "name": "amount1",
          "type": "uint256"
        }
      ],
      "name": "Burn",
      "type": "event"
    },
    {
      "anonymous": false,
      "inputs": [
        {
          "indexed": true,
          "internalType": "address",
          "name": "owner",
          "type": "address"
        },
        {
          "indexed": false,
          "internalType": "address",
          "name": "recipient",
          "type": "address"
        },
        {
          "indexed": true,
          "internalType": "int24",
          "name": "tickLower",
          "type": "int24"
        },
        {
          "indexed": true,
          "internalType": "int24",
          "name": "tickUpper",
          "type": "int24"
        },
        {
          "indexed": false,
          "internalType": "uint128",
          "name": "amount0",
          "type": "uint128"
        },
        {
          "indexed": false,
          "internalType": "uint128",
          "name": "amount1",
          "type": "uint128"
        }
      ],
      "name": "Collect",
      "type": "event"
    },
    {
      "anonymous": false,
      "inputs": [
        {
          "indexed": true,
          "internalType": "address",
          "name": "sender",
          "type": "address"
        },
        {
          "indexed": true,
          "internalType": "address",
          "name": "recipient",
          "type": "address"
        },
        {
          "indexed": false,
          "internalType": "uint128",
          "name": "amount0",
          "type": "uint128"
        },
        {
          "indexed": false,
          "internalType": "uint128",
          "name": "amount1",
          "type": "uint128"
        }
      ],
      "name": "CollectProtocol",
      "type": "event"
    },
    {
      "anonymous": false,
      "inputs": [
        {
          "indexed": true,
          "internalType": "address",
          "name": "sender",
          "type": "address"
        },
        {
          "indexed": true,
          "internalType": "address",
          "name": "recipient",
          "type": "address"
        },
        {
          "indexed": false,
          "internalType": "uint256",
          "name": "amount0",
          "type": "uint256"
        },
        {
          "indexed": false,
          "internalType": "uint256",
          "name": "amount1",
          "type": "uint256"
        },
        {
          "indexed": false,
          "internalType": "uint256",
          "name": "paid0",
          "type": "uint256"
        },
        {
          "indexed": false,
          "internalType": "uint256",
          "name": "paid1",
          "type": "uint256"
        }
      ],
      "name": "Flash",
      "type": "event"
    },
    {
      "anonymous": false,
      "inputs": [
        {
          "indexed": false,
          "internalType": "uint16",
          "name": "observationCardinalityNextOld",
          "type": "uint16"
        },
        {
          "indexed": false,
          "internalType": "uint16",
          "name": "observationCardinalityNextNew",
          "type": "uint16"
        }
      ],
      "name": "IncreaseObservationCardinalityNext",
      "type": "event"
    },
    {
      "anonymous": false,
      "inputs": [
        {
          "indexed": false,
          "internalType": "uint160",
          "name": "sqrtPriceX96",
          "type": "uint160"
        },
        {
          "indexed": false,
          "internalType": "int24",
          "name": "tick",
          "type": "int24"
        }
      ],
      "name": "Initialize",
      "type": "event"
    },
    {
      "anonymous": false,
      "inputs": [
        {
          "indexed": false,
          "internalType": "address",
          "name": "sender",
          "type": "address"
        },
        {
          "indexed": true,
          "internalType": "address",
          "name": "owner",
          "type": "address"
        },
        {
          "indexed": true,
          "internalType": "int24",
          "name": "tickLower",
          "type": "int24"
        },
        {
          "indexed": true,
          "internalType": "int24",
          "name": "tickUpper",
          "type": "int24"
        },
        {
          "indexed": false,
          "internalType": "uint128",
          "name": "amount",
          "type": "uint128"
        },
        {
          "indexed": false,
          "internalType": "uint256",
          "name": "amount0",
          "type": "uint256"
        },
        {
          "indexed": false,
          "internalType": "uint256",
          "name": "amount1",
          "type": "uint256"
        }
      ],
      "name": "Mint",
      "type": "event"
    },
    {
      "anonymous": false,
      "inputs": [
        {
          "indexed": false,
          "internalType": "uint8",
          "name": "feeProtocol0Old",
          "type": "uint8"
        },
        {
          "indexed": false,
          "internalType": "uint8",
          "name": "feeProtocol1Old",
          "type": "uint8"
        },
        {
          "indexed": false,
          "internalType": "uint8",
          "name": "feeProtocol0New",
          "type": "uint8"
        },
        {
          "indexed": false,
          "internalType": "uint8",
          "name": "feeProtocol1New",
          "type": "uint8"
        }
      ],
      "name": "SetFeeProtocol",
      "type": "event"
    },
    {
      "anonymous": false,
      "inputs": [
        {
          "indexed": true,
          "internalType": "address",
          "name": "sender",
          "type": "address"
        },
        {
          "indexed": true,
          "internalType": "address",
          "name": "recipient",
          "type": "address"
        },
        {
          "indexed": false,
          "internalType": "int256",
          "name": "amount0",
          "type": "int256"
        },
        {
          "indexed": false,
          "internalType": "int256",
          "name": "amount1",
          "type": "int256"
        },
        {
          "indexed": false,
          "internalType": "uint160",
          "name": "sqrtPriceX96",
          "type": "uint160"
        },
        {
          "indexed": false,
          "internalType": "uint128",
          "name": "liquidity",
          "type": "uint128"
        },
        {
          "indexed": false,
          "internalType": "int24",
          "name": "tick",
          "type": "int24"
        }
      ],
      "name": "Swap",
      "type": "event"
    },
    {
      "inputs": [
        {
          "internalType": "uint256",
          "name": "by",
          "type": "uint256"
        }
      ],
      "name": "advanceTime",
      "outputs": [],
      "stateMutability": "nonpayable",
      "type": "function"
    },
    {
      "inputs": [
        {
          "internalType": "int24",
          "name": "tickLower",
          "type": "int24"
        },
        {
          "internalType": "int24",
          "name": "tickUpper",
          "type": "int24"
        },
        {
          "internalType": "uint128",
          "name": "amount",
          "type": "uint128"
        }
      ],
      "name": "burn",
      "outputs": [
        {
          "internalType": "uint256",
          "name": "amount0",
          "type": "uint256"
        },
        {
          "internalType": "uint256",
          "name": "amount1",
          "type": "uint256"
        }
      ],
      "stateMutability": "nonpayable",
      "type": "function"
    },
    {
      "inputs": [
        {
          "internalType": "address",
          "name": "recipient",
          "type": "address"
        },
        {
          "internalType": "int24",
          "name": "tickLower",
          "type": "int24"
        },
        {
          "internalType": "int24",
          "name": "tickUpper",
          "type": "int24"
        },
        {
          "internalType": "uint128",
          "name": "amount0Requested",
          "type": "uint128"
        },
        {
          "internalType": "uint128",
          "name": "amount1Requested",
          "type": "uint128"
        }
      ],
      "name": "collect",
      "outputs": [
        {
          "internalType": "uint128",
          "name": "amount0",
          "type": "uint128"
        },
        {
          "internalType": "uint128",
          "name": "amount1",
          "type": "uint128"
        }
      ],
      "stateMutability": "nonpayable",
      "type": "function"
    },
    {
      "inputs": [
        {
          "internalType": "address",
          "name": "recipient",
          "type": "address"
        },
        {
          "internalType": "uint128",
          "name": "amount0Requested",
          "type": "uint128"
        },
        {
          "internalType": "uint128",
          "name": "amount1Requested",
          "type": "uint128"
        }
      ],
      "name": "collectProtocol",
      "outputs": [
        {
          "internalType": "uint128",
          "name": "amount0",
          "type": "uint128"
        },
        {
          "internalType": "uint128",
          "name": "amount1",
          "type": "uint128"
        }
      ],
      "stateMutability": "nonpayable",
      "type": "function"
    },
    {
      "inputs": [],
      "name": "factory",
      "outputs": [
        {
          "internalType": "address",
          "name": "",
          "type": "address"
        }
      ],
      "stateMutability": "view",
      "type": "function"
    },
    {
      "inputs": [],
      "name": "fee",
      "outputs": [
        {
          "internalType": "uint24",
          "name": "",
          "type": "uint24"
        }
      ],
      "stateMutability": "view",
      "type": "function"
    },
    {
      "inputs": [],
      "name": "feeGrowthGlobal0X128",
      "outputs": [
        {
          "internalType": "uint256",
          "name": "",
          "type": "uint256"
        }
      ],
      "stateMutability": "view",
      "type": "function"
    },
    {
      "inputs": [],
      "name": "feeGrowthGlobal1X128",
      "outputs": [
        {
          "internalType": "uint256",
          "name": "",
          "type": "uint256"
        }
      ],
      "stateMutability": "view",
      "type": "function"
    },
    {
      "inputs": [
        {
          "internalType": "address",
          "name": "recipient",
          "type": "address"
        },
        {
          "internalType": "uint256",
          "name": "amount0",
          "type": "uint256"
        },
        {
          "internalType": "uint256",
          "name": "amount1",
          "type": "uint256"
        },
        {
          "internalType": "bytes",
          "name": "data",
          "type": "bytes"
        }
      ],
      "name": "flash",
      "outputs": [],
      "stateMutability": "nonpayable",
      "type": "function"
    },
    {
      "inputs": [
        {
          "internalType": "uint16",
          "name": "observationCardinalityNext",
          "type": "uint16"
        }
      ],
      "name": "increaseObservationCardinalityNext",
      "outputs": [],
      "stateMutability": "nonpayable",
      "type": "function"
    },
    {
      "inputs": [
        {
          "internalType": "uint160",
          "name": "sqrtPriceX96",
          "type": "uint160"
        }
      ],
      "name": "initialize",
      "outputs": [],
      "stateMutability": "nonpayable",
      "type": "function"
    },
    {
      "inputs": [
        {
          "internalType": "address",
          "name": "_factory",
          "type": "address"
        },
        {
          "internalType": "address",
          "name": "_token0",
          "type": "address"
        },
        {
          "internalType": "address",
          "name": "_token1",
          "type": "address"
        },
        {
          "internalType": "uint24",
          "name": "_fee",
          "type": "uint24"
        },
        {
          "internalType": "int24",
          "name": "_tickSpacing",
          "type": "int24"
        }
      ],
      "name": "initializePool",
      "outputs": [],
      "stateMutability": "nonpayable",
      "type": "function"
    },
    {
      "inputs": [],
      "name": "liquidity",
      "outputs": [
        {
          "internalType": "uint128",
          "name": "",
          "type": "uint128"
        }
      ],
      "stateMutability": "view",
      "type": "function"
    },
    {
      "inputs": [],
      "name": "maxLiquidityPerTick",
      "outputs": [
        {
          "internalType": "uint128",
          "name": "",
          "type": "uint128"
        }
      ],
      "stateMutability": "view",
      "type": "function"
    },
    {
      "inputs": [
        {
          "internalType": "address",
          "name": "recipient",
          "type": "address"
        },
        {
          "internalType": "int24",
          "name": "tickLower",
          "type": "int24"
        },
        {
          "internalType": "int24",
          "name": "tickUpper",
          "type": "int24"
        },
        {
          "internalType": "uint128",
          "name": "amount",
          "type": "uint128"
        },
        {
          "internalType": "bytes",
          "name": "data",
          "type": "bytes"
        }
      ],
      "name": "mint",
      "outputs": [
        {
          "internalType": "uint256",
          "name": "amount0",
          "type": "uint256"
        },
        {
          "internalType": "uint256",
          "name": "amount1",
          "type": "uint256"
        }
      ],
      "stateMutability": "nonpayable",
      "type": "function"
    },
    {
      "inputs": [
        {
          "internalType": "uint256",
          "name": "",
          "type": "uint256"
        }
      ],
      "name": "observations",
      "outputs": [
        {
          "internalType": "uint32",
          "name": "blockTimestamp",
          "type": "uint32"
        },
        {
          "internalType": "int56",
          "name": "tickCumulative",
          "type": "int56"
        },
        {
          "internalType": "uint160",
          "name": "secondsPerLiquidityCumulativeX128",
          "type": "uint160"
        },
        {
          "internalType": "bool",
          "name": "initialized",
          "type": "bool"
        }
      ],
      "stateMutability": "view",
      "type": "function"
    },
    {
      "inputs": [
        {
          "internalType": "uint32[]",
          "name": "secondsAgos",
          "type": "uint32[]"
        }
      ],
      "name": "observe",
      "outputs": [
        {
          "internalType": "int56[]",
          "name": "tickCumulatives",
          "type": "int56[]"
        },
        {
          "internalType": "uint160[]",
          "name": "secondsPerLiquidityCumulativeX128s",
          "type": "uint160[]"
        }
      ],
      "stateMutability": "view",
      "type": "function"
    },
    {
      "inputs": [
        {
          "internalType": "bytes32",
          "name": "",
          "type": "bytes32"
        }
      ],
      "name": "positions",
      "outputs": [
        {
          "internalType": "uint128",
          "name": "liquidity",
          "type": "uint128"
        },
        {
          "internalType": "uint256",
          "name": "feeGrowthInside0LastX128",
          "type": "uint256"
        },
        {
          "internalType": "uint256",
          "name": "feeGrowthInside1LastX128",
          "type": "uint256"
        },
        {
          "internalType": "uint128",
          "name": "tokensOwed0",
          "type": "uint128"
        },
        {
          "internalType": "uint128",
          "name": "tokensOwed1",
          "type": "uint128"
        }
      ],
      "stateMutability": "view",
      "type": "function"
    },
    {
      "inputs": [],
      "name": "protocolFees",
      "outputs": [
        {
          "internalType": "uint128",
          "name": "token0",
          "type": "uint128"
        },
        {
          "internalType": "uint128",
          "name": "token1",
          "type": "uint128"
        }
      ],
      "stateMutability": "view",
      "type": "function"
    },
    {
      "inputs": [
        {
          "internalType": "uint256",
          "name": "_feeGrowthGlobal0X128",
          "type": "uint256"
        }
      ],
      "name": "setFeeGrowthGlobal0X128",
      "outputs": [],
      "stateMutability": "nonpayable",
      "type": "function"
    },
    {
      "inputs": [
        {
          "internalType": "uint256",
          "name": "_feeGrowthGlobal1X128",
          "type": "uint256"
        }
      ],
      "name": "setFeeGrowthGlobal1X128",
      "outputs": [],
      "stateMutability": "nonpayable",
      "type": "function"
    },
    {
      "inputs": [
        {
          "internalType": "uint8",
          "name": "feeProtocol0",
          "type": "uint8"
        },
        {
          "internalType": "uint8",
          "name": "feeProtocol1",
          "type": "uint8"
        }
      ],
      "name": "setFeeProtocol",
      "outputs": [],
      "stateMutability": "nonpayable",
      "type": "function"
    },
    {
      "inputs": [],
      "name": "slot0",
      "outputs": [
        {
          "internalType": "uint160",
          "name": "sqrtPriceX96",
          "type": "uint160"
        },
        {
          "internalType": "int24",
          "name": "tick",
          "type": "int24"
        },
        {
          "internalType": "uint16",
          "name": "observationIndex",
          "type": "uint16"
        },
        {
          "internalType": "uint16",
          "name": "observationCardinality",
          "type": "uint16"
        },
        {
          "internalType": "uint16",
          "name": "observationCardinalityNext",
          "type": "uint16"
        },
        {
          "internalType": "uint8",
          "name": "feeProtocol",
          "type": "uint8"
        },
        {
          "internalType": "bool",
          "name": "unlocked",
          "type": "bool"
        }
      ],
      "stateMutability": "view",
      "type": "function"
    },
    {
      "inputs": [
        {
          "internalType": "int24",
          "name": "tickLower",
          "type": "int24"
        },
        {
          "internalType": "int24",
          "name": "tickUpper",
          "type": "int24"
        }
      ],
      "name": "snapshotCumulativesInside",
      "outputs": [
        {
          "internalType": "int56",
          "name": "tickCumulativeInside",
          "type": "int56"
        },
        {
          "internalType": "uint160",
          "name": "secondsPerLiquidityInsideX128",
          "type": "uint160"
        },
        {
          "internalType": "uint32",
          "name": "secondsInside",
          "type": "uint32"
        }
      ],
      "stateMutability": "view",
      "type": "function"
    },
    {
      "inputs": [
        {
          "internalType": "address",
          "name": "recipient",
          "type": "address"
        },
        {
          "internalType": "bool",
          "name": "zeroForOne",
          "type": "bool"
        },
        {
          "internalType": "int256",
          "name": "amountSpecified",
          "type": "int256"
        },
        {
          "internalType": "uint160",
          "name": "sqrtPriceLimitX96",
          "type": "uint160"
        },
        {
          "internalType": "bytes",
          "name": "data",
          "type": "bytes"
        }
      ],
      "name": "swap",
      "outputs": [
        {
          "internalType": "int256",
          "name": "amount0",
          "type": "int256"
        },
        {
          "internalType": "int256",
          "name": "amount1",
          "type": "int256"
        }
      ],
      "stateMutability": "nonpayable",
      "type": "function"
    },
    {
      "inputs": [
        {
          "internalType": "int16",
          "name": "",
          "type": "int16"
        }
      ],
      "name": "tickBitmap",
      "outputs": [
        {
          "internalType": "uint256",
          "name": "",
          "type": "uint256"
        }
      ],
      "stateMutability": "view",
      "type": "function"
    },
    {
      "inputs": [],
      "name": "tickSpacing",
      "outputs": [
        {
          "internalType": "int24",
          "name": "",
          "type": "int24"
        }
      ],
      "stateMutability": "view",
      "type": "function"
    },
    {
      "inputs": [
        {
          "internalType": "int24",
          "name": "",
          "type": "int24"
        }
      ],
      "name": "ticks",
      "outputs": [
        {
          "internalType": "uint128",
          "name": "liquidityGross",
          "type": "uint128"
        },
        {
          "internalType": "int128",
          "name": "liquidityNet",
          "type": "int128"
        },
        {
          "internalType": "uint256",
          "name": "feeGrowthOutside0X128",
          "type": "uint256"
        },
        {
          "internalType": "uint256",
          "name": "feeGrowthOutside1X128",
          "type": "uint256"
        },
        {
          "internalType": "int56",
          "name": "tickCumulativeOutside",
          "type": "int56"
        },
        {
          "internalType": "uint160",
          "name": "secondsPerLiquidityOutsideX128",
          "type": "uint160"
        },
        {
          "internalType": "uint32",
          "name": "secondsOutside",
          "type": "uint32"
        },
        {
          "internalType": "bool",
          "name": "initialized",
          "type": "bool"
        }
      ],
      "stateMutability": "view",
      "type": "function"
    },
    {
      "inputs": [],
      "name": "time",
      "outputs": [
        {
          "internalType": "uint256",
          "name": "",
          "type": "uint256"
        }
      ],
      "stateMutability": "view",
      "type": "function"
    },
    {
      "inputs": [],
      "name": "token0",
      "outputs": [
        {
          "internalType": "address",
          "name": "",
          "type": "address"
        }
      ],
      "stateMutability": "view",
      "type": "function"
    },
    {
      "inputs": [],
      "name": "token1",
      "outputs": [
        {
          "internalType": "address",
          "name": "",
          "type": "address"
        }
      ],
      "stateMutability": "view",
      "type": "function"
    }
  ],
  "bytecode": "0x6080604052635f7b26e06201003d5534801561001a57600080fd5b506156d3806200002b6000396000f3fe608060405234801561001057600080fd5b50600436106101e55760003560e01c806370cf754a1161010f578063d0c93a7c116100a2578063f305839911610071578063f3058399146108e3578063f30dba93146108eb578063f637731d1461096d578063f6eb760f14610993576101e5565b8063d0c93a7c1461087f578063d21220a71461089e578063d380c679146108a6578063ddca3f43146108c3576101e5565b8063a34123a7116100de578063a34123a714610798578063a38807f2146107d2578063c45a01551461082d578063cc6888f414610835576101e5565b806370cf754a146106225780638206a4d11461062a57806385b6672914610652578063883bdbfd1461068f576101e5565b806332148f6711610187578063490e6cbc11610156578063490e6cbc146104cc5780634f1eb3d814610558578063514ea4bf146105a95780635339c29614610602576101e5565b806332148f67146103a85780633850c7bd146103c95780633c8a7d8d1461042257806346141319146104c4576101e5565b806316ada547116101c357806316ada547146102dc5780631a686502146102f65780631ad8b03b1461031a578063252c09d714610351576101e5565b806307e32f0a146101ea5780630dfe168114610209578063128acb081461022d575b600080fd5b6102076004803603602081101561020057600080fd5b50356109b0565b005b6102116109bd565b604080516001600160a01b039092168252519081900360200190f35b6102c3600480360360a081101561024357600080fd5b6001600160a01b0382358116926020810135151592604082013592606083013516919081019060a08101608082013564010000000081111561028457600080fd5b82018360208201111561029657600080fd5b803590602001918460018302840111640100000000831117156102b857600080fd5b5090925090506109cc565b6040805192835260208301919091528051918290030190f35b6102e461151c565b60408051918252519081900360200190f35b6102fe611524565b604080516001600160801b039092168252519081900360200190f35b610322611533565b60405180836001600160801b03168152602001826001600160801b031681526020019250505060405180910390f35b61036e6004803603602081101561036757600080fd5b503561154d565b6040805163ffffffff909516855260069390930b60208501526001600160a01b039091168383015215156060830152519081900360800190f35b610207600480360360208110156103be57600080fd5b503561ffff16611593565b6103d1611684565b604080516001600160a01b03909816885260029690960b602088015261ffff9485168787015292841660608701529216608085015260ff90911660a0840152151560c0830152519081900360e00190f35b6102c3600480360360a081101561043857600080fd5b6001600160a01b03823516916020810135600290810b92604083013590910b916001600160801b036060820135169181019060a08101608082013564010000000081111561048557600080fd5b82018360208201111561049757600080fd5b803590602001918460018302840111640100000000831117156104b957600080fd5b5090925090506116d4565b6102e4611992565b610207600480360360808110156104e257600080fd5b6001600160a01b03823516916020810135916040820135919081019060808101606082013564010000000081111561051957600080fd5b82018360208201111561052b57600080fd5b8035906020019184600183028401116401000000008311171561054d57600080fd5b509092509050611998565b610322600480360360a081101561056e57600080fd5b506001600160a01b03813516906020810135600290810b91604081013590910b906001600160801b0360608201358116916080013516611d9c565b6105c6600480360360208110156105bf57600080fd5b5035611f94565b604080516001600160801b0396871681526020810195909552848101939093529084166060840152909216608082015290519081900360a00190f35b6102e46004803603602081101561061857600080fd5b503560010b611fd1565b6102fe611fe3565b6102076004803603604081101561064057600080fd5b5060ff81358116916020013516611ff2565b6103226004803603606081101561066857600080fd5b506001600160a01b03813516906001600160801b03602082013581169160400135166121d0565b6106ff600480360360208110156106a557600080fd5b8101906020810181356401000000008111156106c057600080fd5b8201836020820111156106d257600080fd5b803590602001918460208302840111640100000000831117156106f457600080fd5b50909250905061245f565b604051808060200180602001838103835285818151815260200191508051906020019060200280838360005b8381101561074357818101518382015260200161072b565b50505050905001838103825284818151815260200191508051906020019060200280838360005b8381101561078257818101518382015260200161076a565b5050505090500194505050505060405180910390f35b6102c3600480360360608110156107ae57600080fd5b508035600290810b91602081013590910b90604001356001600160801b03166124e7565b6107fc600480360360408110156107e857600080fd5b508035600290810b9160200135900b612663565b6040805160069490940b84526001600160a01b03909216602084015263ffffffff1682820152519081900360600190f35b610211612852565b610207600480360360a081101561084b57600080fd5b506001600160a01b03813581169160208101358216916040820135169062ffffff606082013516906080013560020b612867565b6108876129ed565b6040805160029290920b8252519081900360200190f35b6102116129fd565b610207600480360360208110156108bc57600080fd5b5035612a0c565b6108cb612a11565b6040805162ffffff9092168252519081900360200190f35b6102e4612a23565b61090b6004803603602081101561090157600080fd5b503560020b612a29565b604080516001600160801b039099168952600f9790970b602089015287870195909552606087019390935260069190910b60808601526001600160a01b031660a085015263ffffffff1660c0840152151560e083015251908190036101000190f35b6102076004803603602081101561098357600080fd5b50356001600160a01b0316612a97565b610207600480360360208110156109a957600080fd5b5035612c36565b6201003d80549091019055565b6001546001600160a01b031681565b60008085610a06576040805162461bcd60e51b8152602060048201526002602482015261415360f01b604482015290519081900360640190fd5b6040805160e0810182526004546001600160a01b0381168252600160a01b8104600290810b810b900b602083015261ffff600160b81b8204811693830193909352600160c81b810483166060830152600160d81b8104909216608082015260ff600160e81b8304811660a0830152600160f01b909204909116151560c08201819052610abf576040805162461bcd60e51b81526020600482015260036024820152624c4f4b60e81b604482015290519081900360640190fd5b87610b0a5780600001516001600160a01b0316866001600160a01b0316118015610b05575073fffd8963efd1fc6a506488495d951d5263988d266001600160a01b038716105b610b3c565b80600001516001600160a01b0316866001600160a01b0316108015610b3c57506401000276a36001600160a01b038716115b610b73576040805162461bcd60e51b815260206004820152600360248201526214d41360ea1b604482015290519081900360640190fd5b6004805460ff60f01b191690556040805160c08101909152600090808a610ba55760048460a0015160ff16901c610bb8565b60108460a0015160ff1681610bb657fe5b065b60ff1681526008546001600160801b03166020820152604001610bd9612c3b565b63ffffffff168152602001600060060b815260200160006001600160a01b031681526020016000151581525090506000808913905060006040518060e001604052808b81526020016000815260200185600001516001600160a01b03168152602001856020015160020b81526020018c610c5557600654610c59565b6005545b815260200160006001600160801b0316815260200184602001516001600160801b031681525090505b805115801590610ca85750886001600160a01b031681604001516001600160a01b031614155b1561104e57610cb5615635565b60408201516001600160a01b03168152606082015160028054610ce692600a929091600160b81b9004900b8f612c43565b15156040830152600290810b810b60208301819052620d89e719910b1215610d1757620d89e7196020820152610d36565b6020810151620d89e860029190910b1315610d3657620d89e860208201525b610d438160200151612d85565b6001600160a01b031660608201526040820151610dc2908d610d7d578b6001600160a01b031683606001516001600160a01b031611610d97565b8b6001600160a01b031683606001516001600160a01b0316105b610da5578260600151610da7565b8b5b60c08501518551600254600160a01b900462ffffff166130b7565b60c085015260a084015260808301526001600160a01b031660408301528215610e2457610df88160c001518260800151016132a9565b825103825260a0810151610e1a90610e0f906132a9565b6020840151906132bf565b6020830152610e5f565b610e318160a001516132a9565b825101825260c08101516080820151610e5991610e4e91016132a9565b6020840151906132db565b60208301525b835160ff1615610ea5576000846000015160ff168260c0015181610e7f57fe5b60c0840180519290910491829003905260a0840180519091016001600160801b03169052505b60c08201516001600160801b031615610ee457610ed88160c00151600160801b8460c001516001600160801b03166132f1565b60808301805190910190525b80606001516001600160a01b031682604001516001600160a01b0316141561100d57806040015115610fe4578360a00151610f6e57610f4c846040015160008760200151886040015188602001518a60600151600c6133a1909695949392919063ffffffff16565b6001600160a01b03166080860152600690810b900b6060850152600160a08501525b6000610fba82602001518e610f8557600554610f8b565b84608001515b8f610f9a578560800151610f9e565b6006545b608089015160608a015160408b01516009959493929190613534565b90508c15610fc6576000035b610fd48360c0015182613607565b6001600160801b031660c0840152505b8b610ff3578060200151610ffc565b60018160200151035b600290810b900b6060830152611048565b80600001516001600160a01b031682604001516001600160a01b0316146110485761103b82604001516136bd565b600290810b900b60608301525b50610c82565b836020015160020b816060015160020b1461111c5760008061109c86604001518660400151886020015188602001518a606001518b60800151600c6139e9909695949392919063ffffffff16565b604085015160608601516004805461ffff60c81b1916600160c81b61ffff958616021761ffff60b81b1916600160b81b95909416949094029290921762ffffff60a01b1916600160a01b62ffffff60029490940b9390931692909202919091176001600160a01b0319166001600160a01b03909116179055506111419050565b6040810151600480546001600160a01b0319166001600160a01b039092169190911790555b8060c001516001600160801b031683602001516001600160801b0316146111875760c0810151600880546001600160801b0319166001600160801b039092169190911790555b8a156111d757608081015160055560a08101516001600160801b0316156111d25760a0810151600780546001600160801b031981166001600160801b03918216909301169190911790555b61121d565b608081015160065560a08101516001600160801b03161561121d5760a0810151600780546001600160801b03808216600160801b92839004821690940116029190911790555b8115158b15151461123657602081015181518b03611243565b80600001518a0381602001515b90965094508a1561136957600085121561127257600254611272906001600160a01b03168d6000889003613b9e565b600061127c613cec565b9050336001600160a01b031663fa483e7288888c8c6040518563ffffffff1660e01b815260040180858152602001848152602001806020018281038252848482818152602001925080828437600081840152601f19601f82011690508083019250505095505050505050600060405180830381600087803b15801561130057600080fd5b505af1158015611314573d6000803e3d6000fd5b50505050611320613cec565b61132a8289613e07565b1115611363576040805162461bcd60e51b815260206004820152600360248201526249494160e81b604482015290519081900360640190fd5b50611480565b600086121561138d5760015461138d906001600160a01b03168d6000899003613b9e565b6000611397613e17565b9050336001600160a01b031663fa483e7288888c8c6040518563ffffffff1660e01b815260040180858152602001848152602001806020018281038252848482818152602001925080828437600081840152601f19601f82011690508083019250505095505050505050600060405180830381600087803b15801561141b57600080fd5b505af115801561142f573d6000803e3d6000fd5b5050505061143b613e17565b6114458288613e07565b111561147e576040805162461bcd60e51b815260206004820152600360248201526249494160e81b604482015290519081900360640190fd5b505b60408082015160c083015160608085015184518b8152602081018b90526001600160a01b03948516818701526001600160801b039093169183019190915260020b60808201529151908e169133917fc42079f94a6350d7e6235f29174924f928cc2ac818eb64fed8004e115fbcca679181900360a00190a350506004805460ff60f01b1916600160f01b17905550919890975095505050505050565b6201003d5481565b6008546001600160801b031681565b6007546001600160801b0380821691600160801b90041682565b600c8161ffff811061155e57600080fd5b015463ffffffff81169150640100000000810460060b90600160581b81046001600160a01b031690600160f81b900460ff1684565b600454600160f01b900460ff166115d7576040805162461bcd60e51b81526020600482015260036024820152624c4f4b60e81b604482015290519081900360640190fd5b6004805460ff60f01b191690819055600160d81b900461ffff1660006115ff600c8385613e91565b6004805461ffff808416600160d81b810261ffff60d81b199093169290921790925591925083161461166c576040805161ffff80851682528316602082015281517fac49e518f90a358f652e4400164f05a5d8f7e35e7747279bc3a93dbf584e125a929181900390910190a15b50506004805460ff60f01b1916600160f01b17905550565b6004546001600160a01b03811690600160a01b810460020b9061ffff600160b81b8204811691600160c81b8104821691600160d81b8204169060ff600160e81b8204811691600160f01b90041687565b6004546000908190600160f01b900460ff1661171d576040805162461bcd60e51b81526020600482015260036024820152624c4f4b60e81b604482015290519081900360640190fd5b6004805460ff60f01b191690556001600160801b03851661173d57600080fd5b60008061178b60405180608001604052808c6001600160a01b031681526020018b60020b81526020018a60020b81526020016117818a6001600160801b0316613f34565b600f0b9052613f4a565b925092505081935080925060008060008611156117ad576117aa613cec565b91505b84156117be576117bb613e17565b90505b336001600160a01b0316639f382e9b87878b8b6040518563ffffffff1660e01b815260040180858152602001848152602001806020018281038252848482818152602001925080828437600081840152601f19601f82011690508083019250505095505050505050600060405180830381600087803b15801561184057600080fd5b505af1158015611854573d6000803e3d6000fd5b5050505060008611156118ab57611869613cec565b6118738388613e07565b11156118ab576040805162461bcd60e51b815260206004820152600260248201526104d360f41b604482015290519081900360640190fd5b84156118fb576118b9613e17565b6118c38287613e07565b11156118fb576040805162461bcd60e51b81526020600482015260026024820152614d3160f01b604482015290519081900360640190fd5b8960020b8b60020b8d6001600160a01b03167f7a53080ba414158be7ec69b987b5fb7d07dee101fe85488f0853ae16239d0bde338d8b8b60405180856001600160a01b03168152602001846001600160801b0316815260200183815260200182815260200194505050505060405180910390a450506004805460ff60f01b1916600160f01b17905550919890975095505050505050565b60065481565b600454600160f01b900460ff166119dc576040805162461bcd60e51b81526020600482015260036024820152624c4f4b60e81b604482015290519081900360640190fd5b6004805460ff60f01b191690556008546001600160801b031680611a2b576040805162461bcd60e51b81526020600482015260016024820152601360fa1b604482015290519081900360640190fd5b600254600090611a4c908790600160a01b900462ffffff16620f4240614182565b600254909150600090611a70908790600160a01b900462ffffff16620f4240614182565b90506000611a7c613cec565b90506000611a88613e17565b90508815611aa757600154611aa7906001600160a01b03168b8b613b9e565b8715611ac457600254611ac4906001600160a01b03168b8a613b9e565b336001600160a01b031663c3924ed685858a8a6040518563ffffffff1660e01b815260040180858152602001848152602001806020018281038252848482818152602001925080828437600081840152601f19601f82011690508083019250505095505050505050600060405180830381600087803b158015611b4657600080fd5b505af1158015611b5a573d6000803e3d6000fd5b505050506000611b68613cec565b90506000611b74613e17565b905081611b818588613e07565b1115611bb9576040805162461bcd60e51b8152602060048201526002602482015261046360f41b604482015290519081900360640190fd5b80611bc48487613e07565b1115611bfc576040805162461bcd60e51b8152602060048201526002602482015261463160f01b604482015290519081900360640190fd5b8382038382038115611c8b57600454600160e81b9004600f1660008115611c2f578160ff168481611c2957fe5b04611c32565b60005b90506001600160801b03811615611c6557600780546001600160801b038082168401166001600160801b03199091161790555b611c7f818503600160801b8d6001600160801b03166132f1565b60058054909101905550505b8015611d165760048054600160e81b9004901c600f1660008115611cbb578160ff168381611cb557fe5b04611cbe565b60005b90506001600160801b03811615611cf057600780546001600160801b03600160801b8083048216850182160291161790555b611d0a818403600160801b8d6001600160801b03166132f1565b60068054909101905550505b8d6001600160a01b0316336001600160a01b03167fbdbdb71d7860376ba52b25a5028beea23581364a40522f6bcfb86bb1f2dca6338f8f86866040518085815260200184815260200183815260200182815260200194505050505060405180910390a350506004805460ff60f01b1916600160f01b179055505050505050505050505050565b6004546000908190600160f01b900460ff16611de5576040805162461bcd60e51b81526020600482015260036024820152624c4f4b60e81b604482015290519081900360640190fd5b6004805460ff60f01b191690556000611e01600b3389896141bc565b60038101549091506001600160801b0390811690861611611e225784611e31565b60038101546001600160801b03165b60038201549093506001600160801b03600160801b909104811690851611611e595783611e6f565b6003810154600160801b90046001600160801b03165b91506001600160801b03831615611ec1576003810180546001600160801b031981166001600160801b03918216869003821617909155600154611ec1916001600160a01b03909116908a908616613b9e565b6001600160801b03821615611f14576003810180546001600160801b03600160801b808304821686900382160291811691909117909155600254611f14916001600160a01b03909116908a908516613b9e565b604080516001600160a01b038a1681526001600160801b0380861660208301528416818301529051600288810b92908a900b9133917f70935338e69775456a85ddef226c395fb668b63fa0115f5f20610b388e6ca9c0919081900360600190a4506004805460ff60f01b1916600160f01b17905590969095509350505050565b600b6020526000908152604090208054600182015460028301546003909301546001600160801b0392831693919281811691600160801b90041685565b600a6020526000908152604090205481565b6003546001600160801b031681565b600454600160f01b900460ff16612036576040805162461bcd60e51b81526020600482015260036024820152624c4f4b60e81b604482015290519081900360640190fd5b6004805460ff60f01b1916815560005460408051638da5cb5b60e01b81529051620100009092046001600160a01b031692638da5cb5b928282019260209290829003018186803b15801561208957600080fd5b505afa15801561209d573d6000803e3d6000fd5b505050506040513d60208110156120b357600080fd5b50516001600160a01b031633146120c957600080fd5b60ff821615806120ec575060048260ff16101580156120ec5750600a8260ff1611155b8015612116575060ff81161580612116575060048160ff16101580156121165750600a8160ff1611155b61211f57600080fd5b60048054610ff083831b16840160ff908116600160e81b9081027fffff00ffffffffffffffffffffffffffffffffffffffffffffffffffffffffff84161784556040805191909304600f81811683529481901c909416602082015285821681840152848216606082015291519216917f973d8d92bb299f4af6ce49b52a8adb85ae46b9f214c4c4fc06ac77401237b1339181900360800190a150506004805460ff60f01b1916600160f01b17905550565b6004546000908190600160f01b900460ff16612219576040805162461bcd60e51b81526020600482015260036024820152624c4f4b60e81b604482015290519081900360640190fd5b6004805460ff60f01b1916815560005460408051638da5cb5b60e01b81529051620100009092046001600160a01b031692638da5cb5b928282019260209290829003018186803b15801561226c57600080fd5b505afa158015612280573d6000803e3d6000fd5b505050506040513d602081101561229657600080fd5b50516001600160a01b031633146122ac57600080fd5b6007546001600160801b03908116908516116122c857836122d5565b6007546001600160801b03165b6007549092506001600160801b03600160801b9091048116908416116122fb578261230f565b600754600160801b90046001600160801b03165b90506001600160801b0382161561237d576007546001600160801b038381169116141561233e57600019909101905b600780546001600160801b031981166001600160801b0391821685900382161790915560015461237d916001600160a01b039091169087908516613b9e565b6001600160801b038116156123f0576007546001600160801b03828116600160801b9092041614156123ae57600019015b600780546001600160801b03600160801b8083048216859003821602918116919091179091556002546123f0916001600160a01b039091169087908416613b9e565b604080516001600160801b0380851682528316602082015281516001600160a01b0388169233927f596b573906218d3411850b26a6b437d6c4522fdb43d2d2386263f86d50b8b151929081900390910190a36004805460ff60f01b1916600160f01b1790559094909350915050565b6060806124dc61246d612c3b565b85858080602002602001604051908101604052809392919081815260200183836020028082843760009201919091525050600454600854600c95949350600160a01b820460020b925061ffff600160b81b83048116926001600160801b0390921691600160c81b900416614220565b915091509250929050565b6004546000908190600160f01b900460ff16612530576040805162461bcd60e51b81526020600482015260036024820152624c4f4b60e81b604482015290519081900360640190fd5b6004805460ff60f01b1916905560408051608081018252338152600287810b602083015286900b918101919091526000908190819061258c906060810161257f6001600160801b038a16613f34565b600003600f0b9052613f4a565b92509250925081600003945080600003935060008511806125ad5750600084115b156125ec576003830180546001600160801b038082168089018216600160801b93849004831689019092169092029091176001600160801b0319161790555b604080516001600160801b0388168152602081018790528082018690529051600289810b92908b900b9133917f0c396cd989a39f4459b5fa1aed6a9a8dcdbc45908acfd67e028cd568da98982c919081900360600190a450506004805460ff60f01b1916600160f01b179055509094909350915050565b6000806000612672858561437a565b600285810b810b60009081526009602052604080822087840b90930b825281206003830154600681900b9367010000000000000082046001600160a01b0316928492600160d81b810463ffffffff169284929091600160f81b900460ff16806126da57600080fd5b6003820154600681900b985067010000000000000081046001600160a01b03169650600160d81b810463ffffffff169450600160f81b900460ff168061271f57600080fd5b50506040805160e0810182526004546001600160a01b0381168252600160a01b8104600290810b810b810b6020840181905261ffff600160b81b8404811695850195909552600160c81b830485166060850152600160d81b8304909416608084015260ff600160e81b8304811660a0850152600160f01b909204909116151560c08301529093508e810b91900b121590506127c85750939094039650900393509003905061284b565b8a60020b816020015160020b121561283c5760006127e4612c3b565b602083015160408401516008546060860151939450600093849361281a93600c938893879392916001600160801b0316906133a1565b9a9003989098039b50509490960392909203965090910303925061284b915050565b50949093039650039350900390505b9250925092565b6000546201000090046001600160a01b031681565b600054610100900460ff16806128805750612880614443565b8061288e575060005460ff16155b6128c95760405162461bcd60e51b815260040180806020018281038252602e815260200180615699602e913960400191505060405180910390fd5b600054610100900460ff161580156128f4576000805460ff1961ff0019909116610100171660011790555b600080546001600160a01b0380891662010000027fffffffffffffffffffff0000000000000000000000000000000000000000ffff90921691909117909155600180548783166001600160a01b0319918216179091556002805485820b62ffffff908116600160b81b027fffffffffffff000000ffffffffffffffffffffffffffffffffffffffffffffff918916600160a01b0262ffffff60a01b19968b1693909516929092179490941692909217929092161790556129b382614454565b600380546001600160801b0319166001600160801b039290921691909117905580156129e5576000805461ff00191690555b505050505050565b60028054600160b81b9004900b81565b6002546001600160a01b031681565b600555565b600254600160a01b900462ffffff1681565b60055481565b60096020526000908152604090208054600182015460028301546003909301546001600160801b03831693600160801b909304600f0b9290600681900b9067010000000000000081046001600160a01b031690600160d81b810463ffffffff1690600160f81b900460ff1688565b6004546001600160a01b031615612ada576040805162461bcd60e51b8152602060048201526002602482015261414960f01b604482015290519081900360640190fd5b6000612ae5826136bd565b9050600080612afd612af5612c3b565b600c906144be565b6040805160e0810182526001600160a01b038816808252600288810b6020808501829052600085870181905261ffff898116606088018190529089166080880181905260a0880192909252600160c09097019690965260048054600160f01b6001600160a01b0319909116871762ffffff60a01b1916600160a01b62ffffff9787900b9790971696909602959095177fffffffffff00000000ffffffffffffffffffffffffffffffffffffffffffffff16600160c81b9097029690961761ffff60d81b1916600160d81b909102177fff0000ffffffffffffffffffffffffffffffffffffffffffffffffffffffffff1692909217909355835191825281019190915281519395509193507f98636036cb66a9c19a37435efc1e90142190214e8abeb821bdba3f2990dd4c9592918290030190a150505050565b600655565b6201003d5490565b60008060008460020b8660020b81612c5757fe5b05905060008660020b128015612c7e57508460020b8660020b81612c7757fe5b0760020b15155b15612c8857600019015b8315612cfd57600080612c9a8361450a565b600182810b810b600090815260208d9052604090205460ff83169190911b80016000190190811680151597509294509092509085612cdf57888360ff16860302612cf2565b88612ce98261451c565b840360ff168603025b965050505050612d7b565b600080612d0c8360010161450a565b91509150600060018260ff166001901b031990506000818b60008660010b60010b8152602001908152602001600020541690508060001415955085612d5e57888360ff0360ff16866001010102612d74565b8883612d69836145bc565b0360ff168660010101025b9650505050505b5094509492505050565b60008060008360020b12612d9c578260020b612da4565b8260020b6000035b9050620d89e8811115612de2576040805162461bcd60e51b81526020600482015260016024820152601560fa1b604482015290519081900360640190fd5b600060018216612df657600160801b612e08565b6ffffcb933bd6fad37aa2d162d1a5940015b70ffffffffffffffffffffffffffffffffff1690506002821615612e3c576ffff97272373d413259a46990580e213a0260801c5b6004821615612e5b576ffff2e50f5f656932ef12357cf3c7fdcc0260801c5b6008821615612e7a576fffe5caca7e10e4e61c3624eaa0941cd00260801c5b6010821615612e99576fffcb9843d60f6159c9db58835c9266440260801c5b6020821615612eb8576fff973b41fa98c081472e6896dfb254c00260801c5b6040821615612ed7576fff2ea16466c96a3843ec78b326b528610260801c5b6080821615612ef6576ffe5dee046a99a2a811c461f1969c30530260801c5b610100821615612f16576ffcbe86c7900a88aedcffc83b479aa3a40260801c5b610200821615612f36576ff987a7253ac413176f2b074cf7815e540260801c5b610400821615612f56576ff3392b0822b70005940c7a398e4b70f30260801c5b610800821615612f76576fe7159475a2c29b7443b29c7fa6e889d90260801c5b611000821615612f96576fd097f3bdfd2022b8845ad8f792aa58250260801c5b612000821615612fb6576fa9f746462d870fdf8a65dc1f90e061e50260801c5b614000821615612fd6576f70d869a156d2a1b890bb3df62baf32f70260801c5b618000821615612ff6576f31be135f97d08fd981231505542fcfa60260801c5b62010000821615613017576f09aa508b5b7a84e1c677de54f3e99bc90260801c5b62020000821615613037576e5d6af8dedb81196699c329225ee6040260801c5b62040000821615613056576d2216e584f5fa1ea926041bedfe980260801c5b62080000821615613073576b048a170391f7dc42444e8fa20260801c5b60008460020b131561308e57806000198161308a57fe5b0490505b6401000000008106156130a25760016130a5565b60005b60ff16602082901c0192505050919050565b60008080806001600160a01b03808916908a16101581871280159061313c5760006130f08989620f42400362ffffff16620f42406132f1565b905082613109576131048c8c8c60016146a6565b613116565b6131168b8d8c6001614721565b9550858110613127578a9650613136565b6131338c8b83866147de565b96505b50613186565b816131535761314e8b8b8b6000614721565b613160565b6131608a8c8b60006146a6565b935083886000031061317457899550613186565b6131838b8a8a6000038561482a565b95505b6001600160a01b038a81169087161482156131e9578080156131a55750815b6131bb576131b6878d8c6001614721565b6131bd565b855b95508080156131ca575081155b6131e0576131db878d8c60006146a6565b6131e2565b845b9450613233565b8080156131f35750815b613209576132048c888c60016146a6565b61320b565b855b9550808015613218575081155b61322e576132298c888c6000614721565b613230565b845b94505b8115801561324357508860000385115b1561324f578860000394505b81801561326e57508a6001600160a01b0316876001600160a01b031614155b1561327d57858903935061329a565b613297868962ffffff168a620f42400362ffffff16614182565b93505b50505095509550955095915050565b6000600160ff1b82106132bb57600080fd5b5090565b808203828113156000831215146132d557600080fd5b92915050565b818101828112156000831215146132d557600080fd5b6000808060001985870986860292508281109083900303905080613327576000841161331c57600080fd5b50829004905061339a565b80841161333357600080fd5b6000848688096000868103871696879004966002600389028118808a02820302808a02820302808a02820302808a02820302808a02820302808a02909103029181900381900460010186841190950394909402919094039290920491909117919091029150505b9392505050565b60008063ffffffff8716613448576000898661ffff1661ffff81106133c257fe5b60408051608081018252919092015463ffffffff8082168084526401000000008304600690810b810b900b6020850152600160581b83046001600160a01b031694840194909452600160f81b90910460ff16151560608301529092508a161461343457613431818a8988614876565b90505b806020015181604001519250925050613528565b86880360008061345d8c8c858c8c8c8c614926565b91509150816000015163ffffffff168363ffffffff16141561348f578160200151826040015194509450505050613528565b805163ffffffff848116911614156134b7578060200151816040015194509450505050613528565b8151815160208085015190840151918390039286039163ffffffff80841692908516910360060b816134e557fe5b05028460200151018263ffffffff168263ffffffff1686604001518660400151036001600160a01b0316028161351757fe5b048560400151019650965050505050505b97509795505050505050565b600295860b860b60009081526020979097526040909620600181018054909503909455938301805490920390915560038201805463ffffffff600160d81b6001600160a01b036701000000000000008085048216909603169094027fffffffffff0000000000000000000000000000000000000000ffffffffffffff90921691909117600681810b90960390950b66ffffffffffffff1666ffffffffffffff199095169490941782810485169095039093160263ffffffff60d81b1990931692909217905554600160801b9004600f0b90565b60008082600f0b121561366c57826001600160801b03168260000384039150816001600160801b031610613667576040805162461bcd60e51b81526020600482015260026024820152614c5360f01b604482015290519081900360640190fd5b6132d5565b826001600160801b03168284019150816001600160801b031610156132d5576040805162461bcd60e51b81526020600482015260026024820152614c4160f01b604482015290519081900360640190fd5b60006401000276a36001600160a01b038316108015906136f9575073fffd8963efd1fc6a506488495d951d5263988d266001600160a01b038316105b61372e576040805162461bcd60e51b81526020600482015260016024820152602960f91b604482015290519081900360640190fd5b77ffffffffffffffffffffffffffffffffffffffff00000000602083901b166001600160801b03811160071b81811c67ffffffffffffffff811160061b90811c63ffffffff811160051b90811c61ffff811160041b90811c60ff8111600390811b91821c600f811160021b90811c918211600190811b92831c979088119617909417909217179091171717608081106137cf57607f810383901c91506137d9565b80607f0383901b91505b908002607f81811c60ff83811c9190911c800280831c81831c1c800280841c81841c1c800280851c81851c1c800280861c81861c1c800280871c81871c1c800280881c81881c1c800280891c81891c1c8002808a1c818a1c1c8002808b1c818b1c1c8002808c1c818c1c1c8002808d1c818d1c1c8002808e1c9c81901c9c909c1c80029c8d901c9e9d607f198f0160401b60c09190911c678000000000000000161760c19b909b1c674000000000000000169a909a1760c29990991c672000000000000000169890981760c39790971c671000000000000000169690961760c49590951c670800000000000000169490941760c59390931c670400000000000000169290921760c69190911c670200000000000000161760c79190911c670100000000000000161760c89190911c6680000000000000161760c99190911c6640000000000000161760ca9190911c6620000000000000161760cb9190911c6610000000000000161760cc9190911c6608000000000000161760cd9190911c66040000000000001617693627a301d71055774c8581026f028f6481ab7f045a5af012a19d003aa9198101608090811d906fdb2df09e81959a81455e260799a0632f8301901d600281810b9083900b146139da57886001600160a01b03166139be82612d85565b6001600160a01b031611156139d357816139d5565b805b6139dc565b815b9998505050505050505050565b6000806000898961ffff1661ffff81106139ff57fe5b60408051608081018252919092015463ffffffff8082168084526401000000008304600690810b810b900b6020850152600160581b83046001600160a01b031694840194909452600160f81b90910460ff161515606083015290925089161415613a6f5788859250925050613528565b8461ffff168461ffff16118015613a9057506001850361ffff168961ffff16145b15613a9d57839150613aa1565b8491505b8161ffff168960010161ffff1681613ab557fe5b069250613ac481898989614876565b8a8461ffff1661ffff8110613ad557fe5b825191018054602084015160408501516060909501511515600160f81b027effffffffffffffffffffffffffffffffffffffffffffffffffffffffffffff6001600160a01b03909616600160581b027fff0000000000000000000000000000000000000000ffffffffffffffffffffff60069390930b66ffffffffffffff16640100000000026affffffffffffff000000001963ffffffff90971663ffffffff199095169490941795909516929092171692909217929092161790555097509795505050505050565b604080516001600160a01b038481166024830152604480830185905283518084039091018152606490920183526020820180516001600160e01b031663a9059cbb60e01b1781529251825160009485949389169392918291908083835b60208310613c1a5780518252601f199092019160209182019101613bfb565b6001836020036101000a0380198251168184511680821785525050505050509050019150506000604051808303816000865af19150503d8060008114613c7c576040519150601f19603f3d011682016040523d82523d6000602084013e613c81565b606091505b5091509150818015613caf575080511580613caf5750808060200190516020811015613cac57600080fd5b50515b613ce5576040805162461bcd60e51b81526020600482015260026024820152612a2360f11b604482015290519081900360640190fd5b5050505050565b600154604080513060248083019190915282518083039091018152604490910182526020810180516001600160e01b03166370a0823160e01b17815291518151600094859485946001600160a01b039092169391928291908083835b60208310613d675780518252601f199092019160209182019101613d48565b6001836020036101000a038019825116818451168082178552505050505050905001915050600060405180830381855afa9150503d8060008114613dc7576040519150601f19603f3d011682016040523d82523d6000602084013e613dcc565b606091505b5091509150818015613de057506020815110155b613de957600080fd5b808060200190516020811015613dfe57600080fd5b50519250505090565b808201828110156132d557600080fd5b600254604080513060248083019190915282518083039091018152604490910182526020810180516001600160e01b03166370a0823160e01b17815291518151600094859485946001600160a01b0390921693919282919080838360208310613d675780518252601f199092019160209182019101613d48565b6000808361ffff1611613ecf576040805162461bcd60e51b81526020600482015260016024820152604960f81b604482015290519081900360640190fd5b8261ffff168261ffff1611613ee557508161339a565b825b8261ffff168161ffff161015613f2b576001858261ffff1661ffff8110613f0a57fe5b01805463ffffffff191663ffffffff92909216919091179055600101613ee7565b50909392505050565b80600f81900b8114613f4557600080fd5b919050565b6000806000613f618460200151856040015161437a565b6040805160e0810182526004546001600160a01b0381168252600160a01b8104600290810b810b900b602080840182905261ffff600160b81b8404811685870152600160c81b84048116606080870191909152600160d81b8504909116608086015260ff600160e81b8504811660a0870152600160f01b909404909316151560c0850152885190890151948901519289015193946140059491939092909190614b23565b93508460600151600f0b60001461417a57846020015160020b816020015160020b121561405a5761405361403c8660200151612d85565b6140498760400151612d85565b8760600151614ca5565b925061417a565b846040015160020b816020015160020b12156141505760085460408201516001600160801b03909116906140ac90614090612c3b565b602085015160608601516080870151600c9493929187916139e9565b6004805461ffff60c81b1916600160c81b61ffff938416021761ffff60b81b1916600160b81b9390921692909202179055815160408701516140fc91906140f290612d85565b8860600151614ca5565b935061411a61410e8760200151612d85565b83516060890151614ce9565b925061412a818760600151613607565b600880546001600160801b0319166001600160801b03929092169190911790555061417a565b6141776141608660200151612d85565b61416d8760400151612d85565b8760600151614ce9565b91505b509193909250565b600061418f8484846132f1565b90506000828061419b57fe5b848609111561339a5760001981106141b257600080fd5b6001019392505050565b6040805160609490941b6bffffffffffffffffffffffff1916602080860191909152600293840b60e890811b60348701529290930b90911b60378401528051808403601a018152603a90930181528251928201929092206000908152929052902090565b60608060008361ffff1611614260576040805162461bcd60e51b81526020600482015260016024820152604960f81b604482015290519081900360640190fd5b865167ffffffffffffffff8111801561427857600080fd5b506040519080825280602002602001820160405280156142a2578160200160208202803683370190505b509150865167ffffffffffffffff811180156142bd57600080fd5b506040519080825280602002602001820160405280156142e7578160200160208202803683370190505b50905060005b875181101561436d576143188a8a8a848151811061430757fe5b60200260200101518a8a8a8a6133a1565b84838151811061432457fe5b6020026020010184848151811061433757fe5b60200260200101826001600160a01b03166001600160a01b03168152508260060b60060b815250505080806001019150506142ed565b5097509795505050505050565b8060020b8260020b126143ba576040805162461bcd60e51b8152602060048201526003602482015262544c5560e81b604482015290519081900360640190fd5b620d89e719600283900b12156143fd576040805162461bcd60e51b8152602060048201526003602482015262544c4d60e81b604482015290519081900360640190fd5b620d89e8600282900b131561443f576040805162461bcd60e51b815260206004820152600360248201526254554d60e81b604482015290519081900360640190fd5b5050565b600061444e30614d18565b15905090565b60008082600281900b620d89e7198161446957fe5b05029050600083600281900b620d89e88161448057fe5b0502905060008460020b83830360020b8161449757fe5b0560010190508062ffffff166001600160801b038016816144b457fe5b0495945050505050565b6040805160808101825263ffffffff9283168082526000602083018190529282019290925260016060909101819052835463ffffffff1916909117909116600160f81b17909155908190565b60020b600881901d9161010090910790565b600080821161452a57600080fd5b600160801b821061453d57608091821c91015b68010000000000000000821061455557604091821c91015b640100000000821061456957602091821c91015b62010000821061457b57601091821c91015b610100821061458c57600891821c91015b6010821061459c57600491821c91015b600482106145ac57600291821c91015b60028210613f4557600101919050565b60008082116145ca57600080fd5b5060ff6001600160801b038216156145e557607f19016145ed565b608082901c91505b67ffffffffffffffff82161561460657603f190161460e565b604082901c91505b63ffffffff82161561462357601f190161462b565b602082901c91505b61ffff82161561463e57600f1901614646565b601082901c91505b60ff8216156146585760071901614660565b600882901c91505b600f821615614672576003190161467a565b600482901c91505b600382161561468c5760011901614694565b600282901c91505b6001821615613f455760001901919050565b6000836001600160a01b0316856001600160a01b031611156146c6579293925b816146f3576146ee836001600160801b03168686036001600160a01b0316600160601b6132f1565b614716565b614716836001600160801b03168686036001600160a01b0316600160601b614182565b90505b949350505050565b6000836001600160a01b0316856001600160a01b03161115614741579293925b7bffffffffffffffffffffffffffffffff000000000000000000000000606084901b166001600160a01b03868603811690871661477d57600080fd5b836147ad57866001600160a01b03166147a08383896001600160a01b03166132f1565b816147a757fe5b046147d3565b6147d36147c48383896001600160a01b0316614182565b886001600160a01b0316614d1e565b979650505050505050565b600080856001600160a01b0316116147f557600080fd5b6000846001600160801b03161161480b57600080fd5b8161481d576146ee8585856001614d29565b6147168585856001614e0a565b600080856001600160a01b03161161484157600080fd5b6000846001600160801b03161161485757600080fd5b81614869576146ee8585856000614e0a565b6147168585856000614d29565b61487e615671565b600085600001518503905060405180608001604052808663ffffffff1681526020018263ffffffff168660020b0288602001510160060b81526020016000856001600160801b0316116148d25760016148d4565b845b6001600160801b031673ffffffff00000000000000000000000000000000608085901b16816148ff57fe5b048860400151016001600160a01b0316815260200160011515815250915050949350505050565b61492e615671565b614936615671565b888561ffff1661ffff811061494757fe5b60408051608081018252919092015463ffffffff81168083526401000000008204600690810b810b900b6020840152600160581b82046001600160a01b031693830193909352600160f81b900460ff161515606082015292506149ac90899089614eff565b156149e4578663ffffffff16826000015163ffffffff1614156149ce57613528565b816149db83898988614876565b91509150613528565b888361ffff168660010161ffff16816149f957fe5b0661ffff1661ffff8110614a0957fe5b60408051608081018252929091015463ffffffff811683526401000000008104600690810b810b900b60208401526001600160a01b03600160581b8204169183019190915260ff600160f81b90910416151560608201819052909250614ac057604080516080810182528a5463ffffffff811682526401000000008104600690810b810b900b6020830152600160581b81046001600160a01b031692820192909252600160f81b90910460ff161515606082015291505b614acf88836000015189614eff565b614b06576040805162461bcd60e51b815260206004820152600360248201526213d31160ea1b604482015290519081900360640190fd5b614b138989898887614fc2565b9150915097509795505050505050565b6000614b32600b8787876141bc565b60055460065491925090600080600f87900b15614c45576000614b53612c3b565b6004546008549192506000918291614b9d91600c9186918591600160a01b810460020b9161ffff600160b81b83048116926001600160801b0390921691600160c81b9004166133a1565b6003549193509150614bcd906009908e908c908e908c908c9088908a908c906000906001600160801b0316615162565b600354909550614bfb906009908d908c908e908c908c9088908a908c906001906001600160801b0316615162565b93508415614c1f5760028054614c1f91600a918f91600160b81b909104900b61534c565b8315614c415760028054614c4191600a918e91600160b81b909104900b61534c565b5050505b600080614c5760098c8c8b8a8a6153b2565b9092509050614c68878a848461545e565b600089600f0b1215614c96578315614c8557614c8560098c6155f3565b8215614c9657614c9660098b6155f3565b50505050505095945050505050565b60008082600f0b12614ccb57614cc6614cc18585856001614721565b6132a9565b614719565b614cde614cc18585856000036000614721565b600003949350505050565b60008082600f0b12614d0557614cc6614cc185858560016146a6565b614cde614cc185858560000360006146a6565b3b151590565b808204910615150190565b60008115614d9c5760006001600160a01b03841115614d5f57614d5a84600160601b876001600160801b03166132f1565b614d77565b6001600160801b038516606085901b81614d7557fe5b045b9050614d94614d8f6001600160a01b03881683613e07565b61561f565b915050614719565b60006001600160a01b03841115614dca57614dc584600160601b876001600160801b0316614182565b614de1565b614de1606085901b6001600160801b038716614d1e565b905080866001600160a01b031611614df857600080fd5b6001600160a01b038616039050614719565b600082614e18575083614719565b7bffffffffffffffffffffffffffffffff000000000000000000000000606085901b168215614eb8576001600160a01b03861684810290858281614e5857fe5b041415614e8957818101828110614e8757614e7d83896001600160a01b031683614182565b9350505050614719565b505b614eaf82614eaa878a6001600160a01b03168681614ea357fe5b0490613e07565b614d1e565b92505050614719565b6001600160a01b03861684810290858281614ecf57fe5b04148015614edc57508082115b614ee557600080fd5b808203614e7d614d8f846001600160a01b038b1684614182565b60008363ffffffff168363ffffffff1611158015614f2957508363ffffffff168263ffffffff1611155b15614f45578163ffffffff168363ffffffff161115905061339a565b60008463ffffffff168463ffffffff1611614f6d578363ffffffff1664010000000001614f75565b8363ffffffff165b64ffffffffff16905060008563ffffffff168463ffffffff1611614fa6578363ffffffff1664010000000001614fae565b8363ffffffff165b64ffffffffff169091111595945050505050565b614fca615671565b614fd2615671565b60008361ffff168560010161ffff1681614fe857fe5b0661ffff169050600060018561ffff16830103905060005b506002818301048961ffff8716828161501557fe5b0661ffff811061502157fe5b60408051608081018252929091015463ffffffff811683526401000000008104600690810b810b900b60208401526001600160a01b03600160581b8204169183019190915260ff600160f81b9091041615156060820181905290955061508c57806001019250615000565b898661ffff16826001018161509d57fe5b0661ffff81106150a957fe5b60408051608081018252929091015463ffffffff811683526401000000008104600690810b810b900b60208401526001600160a01b03600160581b8204169183019190915260ff600160f81b90910416151560608201528551909450600090615114908b908b614eff565b905080801561512d575061512d8a8a8760000151614eff565b156151385750615155565b806151485760018203925061514f565b8160010193505b50615000565b5050509550959350505050565b60028a810b900b600090815260208c90526040812080546001600160801b03168261518d828d613607565b9050846001600160801b0316816001600160801b031611156151db576040805162461bcd60e51b81526020600482015260026024820152614c4f60f01b604482015290519081900360640190fd5b6001600160801b0382811615908216158114159450156152b1578c60020b8e60020b1361528157600183018b9055600283018a90556003830180547fffffffffff0000000000000000000000000000000000000000ffffffffffffff166701000000000000006001600160a01b038c16021766ffffffffffffff191666ffffffffffffff60068b900b161763ffffffff60d81b1916600160d81b63ffffffff8a16021790555b6003830180547effffffffffffffffffffffffffffffffffffffffffffffffffffffffffffff16600160f81b1790555b82546001600160801b0319166001600160801b038216178355856152fa5782546152f5906152f090600160801b9004600f90810b810b908f900b6132db565b613f34565b61531b565b825461531b906152f090600160801b9004600f90810b810b908f900b6132bf565b8354600f9190910b6001600160801b03908116600160801b0291161790925550909c9b505050505050505050505050565b8060020b8260020b8161535b57fe5b0760020b1561536957600080fd5b6000806153848360020b8560020b8161537e57fe5b0561450a565b600191820b820b60009081526020979097526040909620805460ff9097169190911b90951890945550505050565b600285810b80820b60009081526020899052604080822088850b850b83529082209193849391929184918291908a900b126153f85750506001820154600283015461540b565b8360010154880391508360020154870390505b6000808b60020b8b60020b121561542d57505060018301546002840154615440565b84600101548a0391508460020154890390505b92909803979097039b96909503949094039850939650505050505050565b6040805160a08101825285546001600160801b0390811682526001870154602083015260028701549282019290925260038601548083166060830152600160801b900490911660808201526000600f85900b6154fd5781516001600160801b03166154f5576040805162461bcd60e51b815260206004820152600260248201526104e560f41b604482015290519081900360640190fd5b50805161550c565b81516155099086613607565b90505b60006155308360200151860384600001516001600160801b0316600160801b6132f1565b905060006155568460400151860385600001516001600160801b0316600160801b6132f1565b905086600f0b60001461557d5787546001600160801b0319166001600160801b0384161788555b60018801869055600288018590556001600160801b0382161515806155ab57506000816001600160801b0316115b156155e9576003880180546001600160801b031981166001600160801b039182168501821617808216600160801b9182900483168501909216021790555b5050505050505050565b600290810b810b6000908152602092909252604082208281556001810183905590810182905560030155565b806001600160a01b0381168114613f4557600080fd5b6040805160e081018252600080825260208201819052918101829052606081018290526080810182905260a0810182905260c081019190915290565b6040805160808101825260008082526020820181905291810182905260608101919091529056fe496e697469616c697a61626c653a20636f6e747261637420697320616c726561647920696e697469616c697a6564a164736f6c6343000706000a",
  "linkReferences": {},
  "deployedLinkReferences": {}
}