{
  "_format": "hh-sol-artifact-1",
  "contractName": "TestCallee",
  "sourceName": "contracts/test/TestCallee.sol",
  "abi": [
    {
      "anonymous": false,
      "inputs": [
        {
          "indexed": false,
          "internalType": "uint256",
          "name": "fee0",
          "type": "uint256"
        },
        {
          "indexed": false,
          "internalType": "uint256",
          "name": "fee1",
          "type": "uint256"
        }
      ],
      "name": "FlashCallback",
      "type": "event"
    },
    {
      "anonymous": false,
      "inputs": [
        {
          "indexed": false,
          "internalType": "uint256",
          "name": "amount0Owed",
          "type": "uint256"
        },
        {
          "indexed": false,
          "internalType": "uint256",
          "name": "amount1Owed",
          "type": "uint256"
        }
      ],
      "name": "MintCallback",
      "type": "event"
    },
    {
      "anonymous": false,
      "inputs": [
        {
          "indexed": false,
          "internalType": "int256",
          "name": "amount0Delta",
          "type": "int256"
        },
        {
          "indexed": false,
          "internalType": "int256",
          "name": "amount1Delta",
          "type": "int256"
        }
      ],
      "name": "SwapCallback",
      "type": "event"
    },
    {
      "inputs": [
        {
          "internalType": "address",
          "name": "pool",
          "type": "address"
        },
        {
          "internalType": "address",
          "name": "recipient",
          "type": "address"
        },
        {
          "internalType": "uint256",
          "name": "amount0",
          "type": "uint256"
        },
        {
          "internalType": "uint256",
          "name": "amount1",
          "type": "uint256"
        },
        {
          "internalType": "uint256",
          "name": "pay0",
          "type": "uint256"
        },
        {
          "internalType": "uint256",
          "name": "pay1",
          "type": "uint256"
        }
      ],
      "name": "flash",
      "outputs": [],
      "stateMutability": "nonpayable",
      "type": "function"
    },
    {
      "inputs": [
        {
          "internalType": "uint256",
          "name": "fee0",
          "type": "uint256"
        },
        {
          "internalType": "uint256",
          "name": "fee1",
          "type": "uint256"
        },
        {
          "internalType": "bytes",
          "name": "data",
          "type": "bytes"
        }
      ],
      "name": "flashCallback",
      "outputs": [],
      "stateMutability": "nonpayable",
      "type": "function"
    },
    {
      "inputs": [
        {
          "internalType": "address",
          "name": "pool",
          "type": "address"
        },
        {
          "internalType": "address",
          "name": "recipient",
          "type": "address"
        },
        {
          "internalType": "int24",
          "name": "tickLower",
          "type": "int24"
        },
        {
          "internalType": "int24",
          "name": "tickUpper",
          "type": "int24"
        },
        {
          "internalType": "uint128",
          "name": "amount",
          "type": "uint128"
        }
      ],
      "name": "mint",
      "outputs": [],
      "stateMutability": "nonpayable",
      "type": "function"
    },
    {
      "inputs": [
        {
          "internalType": "uint256",
          "name": "amount0Owed",
          "type": "uint256"
        },
        {
          "internalType": "uint256",
          "name": "amount1Owed",
          "type": "uint256"
        },
        {
          "internalType": "bytes",
          "name": "data",
          "type": "bytes"
        }
      ],
      "name": "mintCallback",
      "outputs": [],
      "stateMutability": "nonpayable",
      "type": "function"
    },
    {
      "inputs": [
        {
          "internalType": "address",
          "name": "pool",
          "type": "address"
        },
        {
          "internalType": "uint256",
          "name": "amount1Out",
          "type": "uint256"
        },
        {
          "internalType": "address",
          "name": "recipient",
          "type": "address"
        },
        {
          "internalType": "uint160",
          "name": "sqrtPriceLimitX96",
          "type": "uint160"
        }
      ],
      "name": "swap0ForExact1",
      "outputs": [],
      "stateMutability": "nonpayable",
      "type": "function"
    },
    {
      "inputs": [
        {
          "internalType": "address",
          "name": "pool",
          "type": "address"
        },
        {
          "internalType": "uint256",
          "name": "amount0Out",
          "type": "uint256"
        },
        {
          "internalType": "address",
          "name": "recipient",
          "type": "address"
        },
        {
          "internalType": "uint160",
          "name": "sqrtPriceLimitX96",
          "type": "uint160"
        }
      ],
      "name": "swap1ForExact0",
      "outputs": [],
      "stateMutability": "nonpayable",
      "type": "function"
    },
    {
      "inputs": [
        {
          "internalType": "int256",
          "name": "amount0Delta",
          "type": "int256"
        },
        {
          "internalType": "int256",
          "name": "amount1Delta",
          "type": "int256"
        },
        {
          "internalType": "bytes",
          "name": "data",
          "type": "bytes"
        }
      ],
      "name": "swapCallback",
      "outputs": [],
      "stateMutability": "nonpayable",
      "type": "function"
    },
    {
      "inputs": [
        {
          "internalType": "address",
          "name": "pool",
          "type": "address"
        },
        {
          "internalType": "uint256",
          "name": "amount0In",
          "type": "uint256"
        },
        {
          "internalType": "address",
          "name": "recipient",
          "type": "address"
        },
        {
          "internalType": "uint160",
          "name": "sqrtPriceLimitX96",
          "type": "uint160"
        }
      ],
      "name": "swapExact0For1",
      "outputs": [],
      "stateMutability": "nonpayable",
      "type": "function"
    },
    {
      "inputs": [
        {
          "internalType": "address",
          "name": "pool",
          "type": "address"
        },
        {
          "internalType": "uint256",
          "name": "amount1In",
          "type": "uint256"
        },
        {
          "internalType": "address",
          "name": "recipient",
          "type": "address"
        },
        {
          "internalType": "uint160",
          "name": "sqrtPriceLimitX96",
          "type": "uint160"
        }
      ],
      "name": "swapExact1For0",
      "outputs": [],
      "stateMutability": "nonpayable",
      "type": "function"
    },
    {
      "inputs": [
        {
          "internalType": "address",
          "name": "pool",
          "type": "address"
        },
        {
          "internalType": "uint160",
          "name": "sqrtPriceX96",
          "type": "uint160"
        },
        {
          "internalType": "address",
          "name": "recipient",
          "type": "address"
        }
      ],
      "name": "swapToHigherSqrtPrice",
      "outputs": [],
      "stateMutability": "nonpayable",
      "type": "function"
    },
    {
      "inputs": [
        {
          "internalType": "address",
          "name": "pool",
          "type": "address"
        },
        {
          "internalType": "uint160",
          "name": "sqrtPriceX96",
          "type": "uint160"
        },
        {
          "internalType": "address",
          "name": "recipient",
          "type": "address"
        }
      ],
      "name": "swapToLowerSqrtPrice",
      "outputs": [],
      "stateMutability": "nonpayable",
      "type": "function"
    }
  ],
  "bytecode": "0x608060405234801561001057600080fd5b506111b6806100206000396000f3fe608060405234801561001057600080fd5b50600436106100c95760003560e01c80639f382e9b11610081578063e2be91091161005b578063e2be910914610355578063f603482c14610391578063fa483e72146103cd576100c9565b80639f382e9b14610221578063bac7bf781461029d578063c3924ed6146102d9576100c9565b80636dfc0ddb116100b25780636dfc0ddb146101505780637b4f53271461018c5780639e77b805146101e9576100c9565b8063034b0f8f146100ce5780632ec20bf914610118575b600080fd5b610116600480360360c08110156100e457600080fd5b506001600160a01b03813581169160208101359091169060408101359060608101359060808101359060a00135610449565b005b6101166004803603606081101561012e57600080fd5b506001600160a01b03813581169160208101358216916040909101351661056a565b6101166004803603608081101561016657600080fd5b506001600160a01b038135811691602081013591604082013581169160600135166106a6565b610116600480360360a08110156101a257600080fd5b5080356001600160a01b03908116916020810135909116906040810135600290810b91606081013590910b90608001356fffffffffffffffffffffffffffffffff166107e4565b610116600480360360608110156101ff57600080fd5b506001600160a01b038135811691602081013582169160409091013516610927565b6101166004803603606081101561023757600080fd5b81359160208101359181019060608101604082013564010000000081111561025e57600080fd5b82018360208201111561027057600080fd5b8035906020019184600183028401116401000000008311171561029257600080fd5b5090925090506109e2565b610116600480360360808110156102b357600080fd5b506001600160a01b03813581169160208101359160408201358116916060013516610c1c565b610116600480360360608110156102ef57600080fd5b81359160208101359181019060608101604082013564010000000081111561031657600080fd5b82018360208201111561032857600080fd5b8035906020019184600183028401116401000000008311171561034a57600080fd5b509092509050610cdb565b6101166004803603608081101561036b57600080fd5b506001600160a01b03813581169160208101359160408201358116916060013516610f30565b610116600480360360808110156103a757600080fd5b506001600160a01b03813581169160208101359160408201358116916060013516610f4b565b610116600480360360608110156103e357600080fd5b81359160208101359181019060608101604082013564010000000081111561040a57600080fd5b82018360208201111561041c57600080fd5b8035906020019184600183028401116401000000008311171561043e57600080fd5b509092509050610f66565b856001600160a01b031663490e6cbc86868633878760405160200180846001600160a01b0316815260200183815260200182815260200193505050506040516020818303038152906040526040518563ffffffff1660e01b815260040180856001600160a01b0316815260200184815260200183815260200180602001828103825283818151815260200191508051906020019080838360005b838110156104fb5781810151838201526020016104e3565b50505050905090810190601f1680156105285780820380516001836020036101000a031916815260200191505b5095505050505050600060405180830381600087803b15801561054a57600080fd5b505af115801561055e573d6000803e3d6000fd5b50505050505050505050565b826001600160a01b031663128acb088260016001600160ff1b03863360405160200180826001600160a01b031681526020019150506040516020818303038152906040526040518663ffffffff1660e01b815260040180866001600160a01b031681526020018515158152602001848152602001836001600160a01b0316815260200180602001828103825283818151815260200191508051906020019080838360005b8381101561062657818101518382015260200161060e565b50505050905090810190601f1680156106535780820380516001836020036101000a031916815260200191505b5096505050505050506040805180830381600087803b15801561067557600080fd5b505af1158015610689573d6000803e3d6000fd5b505050506040513d604081101561069f57600080fd5b5050505050565b836001600160a01b031663128acb088360016106c187611193565b853360405160200180826001600160a01b031681526020019150506040516020818303038152906040526040518663ffffffff1660e01b815260040180866001600160a01b031681526020018515158152602001848152602001836001600160a01b0316815260200180602001828103825283818151815260200191508051906020019080838360005b8381101561076357818101518382015260200161074b565b50505050905090810190601f1680156107905780820380516001836020036101000a031916815260200191505b5096505050505050506040805180830381600087803b1580156107b257600080fd5b505af11580156107c6573d6000803e3d6000fd5b505050506040513d60408110156107dc57600080fd5b505050505050565b846001600160a01b0316633c8a7d8d858585853360405160200180826001600160a01b031681526020019150506040516020818303038152906040526040518663ffffffff1660e01b815260040180866001600160a01b031681526020018560020b81526020018460020b8152602001836fffffffffffffffffffffffffffffffff16815260200180602001828103825283818151815260200191508051906020019080838360005b838110156108a557818101518382015260200161088d565b50505050905090810190601f1680156108d25780820380516001836020036101000a031916815260200191505b5096505050505050506040805180830381600087803b1580156108f457600080fd5b505af1158015610908573d6000803e3d6000fd5b505050506040513d604081101561091e57600080fd5b50505050505050565b826001600160a01b031663128acb088260006001600160ff1b03863360405160200180826001600160a01b031681526020019150506040516020818303038152906040526040518663ffffffff1660e01b815260040180866001600160a01b031681526020018515158152602001848152602001836001600160a01b0316815260200180602001828103825283818151815260200191508051906020019080838360008381101561062657818101518382015260200161060e565b6000828260208110156109f457600080fd5b506040805187815260208101879052815192356001600160a01b031693507fa0968be00566083701c9ef671c169d7fb05ac8907de4ca17185de74ccbb694d4929081900390910190a18415610b2e57336001600160a01b0316630dfe16816040518163ffffffff1660e01b815260040160206040518083038186803b158015610a7c57600080fd5b505afa158015610a90573d6000803e3d6000fd5b505050506040513d6020811015610aa657600080fd5b5051604080516323b872dd60e01b81526001600160a01b03848116600483015233602483015260448201899052915191909216916323b872dd9160648083019260209291908290030181600087803b158015610b0157600080fd5b505af1158015610b15573d6000803e3d6000fd5b505050506040513d6020811015610b2b57600080fd5b50505b831561069f57336001600160a01b031663d21220a76040518163ffffffff1660e01b815260040160206040518083038186803b158015610b6d57600080fd5b505afa158015610b81573d6000803e3d6000fd5b505050506040513d6020811015610b9757600080fd5b5051604080516323b872dd60e01b81526001600160a01b03848116600483015233602483015260448201889052915191909216916323b872dd9160648083019260209291908290030181600087803b158015610bf257600080fd5b505af1158015610c06573d6000803e3d6000fd5b505050506040513d602081101561091e57600080fd5b836001600160a01b031663128acb08836001610c3787611193565b600003853360405160200180826001600160a01b031681526020019150506040516020818303038152906040526040518663ffffffff1660e01b815260040180866001600160a01b031681526020018515158152602001848152602001836001600160a01b0316815260200180602001828103825283818151815260200191508051906020019080838360008381101561076357818101518382015260200161074b565b604080518581526020810185905281517f2b0391b4fa408cfe47abd1977d72985695b2e5ebd3175f55be25f2c68c5df21b929181900390910190a1600080600084846060811015610d2b57600080fd5b506001600160a01b038135169350602081013592506040013590508115610e3757336001600160a01b0316630dfe16816040518163ffffffff1660e01b815260040160206040518083038186803b158015610d8557600080fd5b505afa158015610d99573d6000803e3d6000fd5b505050506040513d6020811015610daf57600080fd5b5051604080516323b872dd60e01b81526001600160a01b03868116600483015233602483015260448201869052915191909216916323b872dd9160648083019260209291908290030181600087803b158015610e0a57600080fd5b505af1158015610e1e573d6000803e3d6000fd5b505050506040513d6020811015610e3457600080fd5b50505b801561091e57336001600160a01b031663d21220a76040518163ffffffff1660e01b815260040160206040518083038186803b158015610e7657600080fd5b505afa158015610e8a573d6000803e3d6000fd5b505050506040513d6020811015610ea057600080fd5b5051604080516323b872dd60e01b81526001600160a01b03868116600483015233602483015260448201859052915191909216916323b872dd9160648083019260209291908290030181600087803b158015610efb57600080fd5b505af1158015610f0f573d6000803e3d6000fd5b505050506040513d6020811015610f2557600080fd5b505050505050505050565b836001600160a01b031663128acb088360006106c187611193565b836001600160a01b031663128acb08836000610c3787611193565b600082826020811015610f7857600080fd5b506040805187815260208101879052815192356001600160a01b031693507fd48241df4a75e663b29e55f9506b31f77ed0f48cfe7e7612d1163144995dc1ca929081900390910190a160008513156110ba57336001600160a01b0316630dfe16816040518163ffffffff1660e01b815260040160206040518083038186803b15801561100357600080fd5b505afa158015611017573d6000803e3d6000fd5b505050506040513d602081101561102d57600080fd5b5051604080516323b872dd60e01b81526001600160a01b03848116600483015233602483015260448201899052915191909216916323b872dd9160648083019260209291908290030181600087803b15801561108857600080fd5b505af115801561109c573d6000803e3d6000fd5b505050506040513d60208110156110b257600080fd5b5061069f9050565b600084131561118157336001600160a01b031663d21220a76040518163ffffffff1660e01b815260040160206040518083038186803b1580156110fc57600080fd5b505afa158015611110573d6000803e3d6000fd5b505050506040513d602081101561112657600080fd5b5051604080516323b872dd60e01b81526001600160a01b03848116600483015233602483015260448201889052915191909216916323b872dd9160648083019260209291908290030181600087803b15801561108857600080fd5b8415801561118d575083155b61069f57fe5b6000600160ff1b82106111a557600080fd5b509056fea164736f6c6343000706000a",
  "linkReferences": {},
  "deployedLinkReferences": {}
}